:100000000C9434000C943E000C943E000C943E0082
:100010000C943E000C943E000C943E000C943E0068
:100020000C943E000C943E000C943E000C943E0058
:100030000C943E000C943E000C943E000C943E0048
:100040000C943E000C943E000C943E000C943E0038
:100050000C943E000C943E000C943E000C943E0028
:100060000C943E000C943E0011241FBECFEFD8E04C
:10007000DEBFCDBF0E9455000C946F000C940000B1
:1000800095B121E030E001C0220F8A95EAF7922B6A
:1000900095B9089595B121E030E001C0220F8A950D
:1000A000EAF72095292325B90895259A85E00E942D
:1000B00040002FEF83ED90E3215080409040E1F726
:1000C00000C0000085E00E944A002FEF83ED90E31E
:1000D000215080409040E1F700C00000E7CFF89445
:0200E000FFCF50
:00000001FF
